{
  "contractName": "ERC223Token",
  "abi": [
    {
      "anonymous": false,
      "inputs": [
        {
          "indexed": true,
          "internalType": "address",
          "name": "from",
          "type": "address"
        },
        {
          "indexed": true,
          "internalType": "address",
          "name": "to",
          "type": "address"
        },
        {
          "indexed": false,
          "internalType": "uint256",
          "name": "value",
          "type": "uint256"
        },
        {
          "indexed": false,
          "internalType": "bytes",
          "name": "data",
          "type": "bytes"
        }
      ],
      "name": "Transfer",
      "type": "event"
    },
    {
      "constant": true,
      "inputs": [],
      "name": "_totalSupply",
      "outputs": [
        {
          "internalType": "uint256",
          "name": "",
          "type": "uint256"
        }
      ],
      "payable": false,
      "stateMutability": "view",
      "type": "function"
    },
    {
      "constant": true,
      "inputs": [],
      "name": "totalSupply",
      "outputs": [
        {
          "internalType": "uint256",
          "name": "",
          "type": "uint256"
        }
      ],
      "payable": false,
      "stateMutability": "view",
      "type": "function"
    },
    {
      "constant": false,
      "inputs": [
        {
          "internalType": "address",
          "name": "_to",
          "type": "address"
        },
        {
          "internalType": "uint256",
          "name": "_value",
          "type": "uint256"
        }
      ],
      "name": "transfer",
      "outputs": [
        {
          "internalType": "bool",
          "name": "success",
          "type": "bool"
        }
      ],
      "payable": false,
      "stateMutability": "nonpayable",
      "type": "function"
    },
    {
      "constant": false,
      "inputs": [
        {
          "internalType": "address",
          "name": "_to",
          "type": "address"
        },
        {
          "internalType": "uint256",
          "name": "_value",
          "type": "uint256"
        },
        {
          "internalType": "bytes",
          "name": "_data",
          "type": "bytes"
        }
      ],
      "name": "transfer",
      "outputs": [
        {
          "internalType": "bool",
          "name": "success",
          "type": "bool"
        }
      ],
      "payable": false,
      "stateMutability": "nonpayable",
      "type": "function"
    },
    {
      "constant": true,
      "inputs": [
        {
          "internalType": "address",
          "name": "_owner",
          "type": "address"
        }
      ],
      "name": "balanceOf",
      "outputs": [
        {
          "internalType": "uint256",
          "name": "balance",
          "type": "uint256"
        }
      ],
      "payable": false,
      "stateMutability": "view",
      "type": "function"
    }
  ],
  "bytecode": "0x608060405234801561001057600080fd5b50610a73806100206000396000f3fe608060405234801561001057600080fd5b50600436106100575760003560e01c806318160ddd1461005c5780633eaaf86b1461007a57806370a0823114610098578063a9059cbb146100f0578063be45fd6214610156575b600080fd5b610064610253565b6040518082815260200191505060405180910390f35b61008261025c565b6040518082815260200191505060405180910390f35b6100da600480360360208110156100ae57600080fd5b81019080803573ffffffffffffffffffffffffffffffffffffffff169060200190929190505050610262565b6040518082815260200191505060405180910390f35b61013c6004803603604081101561010657600080fd5b81019080803573ffffffffffffffffffffffffffffffffffffffff169060200190929190803590602001909291905050506102ab565b604051808215151515815260200191505060405180910390f35b6102396004803603606081101561016c57600080fd5b81019080803573ffffffffffffffffffffffffffffffffffffffff16906020019092919080359060200190929190803590602001906401000000008111156101b357600080fd5b8201836020820111156101c557600080fd5b803590602001918460018302840111640100000000831117156101e757600080fd5b91908080601f016020809104026020016040519081016040528093929190818152602001838380828437600081840152601f19601f8201169050808301925050505050505091929192905050506105f0565b604051808215151515815260200191505060405180910390f35b60008054905090565b60005481565b6000600160008373ffffffffffffffffffffffffffffffffffffffff1673ffffffffffffffffffffffffffffffffffffffff168152602001908152602001600020549050919050565b600060606040518060400160405280600481526020016000815250905061031a83600160003373ffffffffffffffffffffffffffffffffffffffff1673ffffffffffffffffffffffffffffffffffffffff1681526020019081526020016000205461091a90919063ffffffff16565b600160003373ffffffffffffffffffffffffffffffffffffffff1673ffffffffffffffffffffffffffffffffffffffff168152602001908152602001600020819055506103af83600160008773ffffffffffffffffffffffffffffffffffffffff1673ffffffffffffffffffffffffffffffffffffffff168152602001908152602001600020546109a390919063ffffffff16565b600160008673ffffffffffffffffffffffffffffffffffffffff1673ffffffffffffffffffffffffffffffffffffffff168152602001908152602001600020819055506103fb84610a2b565b156105135760008490508073ffffffffffffffffffffffffffffffffffffffff1663c0ee0b8a3386856040518463ffffffff1660e01b8152600401808473ffffffffffffffffffffffffffffffffffffffff1673ffffffffffffffffffffffffffffffffffffffff16815260200183815260200180602001828103825283818151815260200191508051906020019080838360005b838110156104ab578082015181840152602081019050610490565b50505050905090810190601f1680156104d85780820380516001836020036101000a031916815260200191505b50945050505050600060405180830381600087803b1580156104f957600080fd5b505af115801561050d573d6000803e3d6000fd5b50505050505b8373ffffffffffffffffffffffffffffffffffffffff163373ffffffffffffffffffffffffffffffffffffffff167fe19260aff97b920c7df27010903aeb9c8d2be5d310a2c67824cf3f15396e4c1685846040518083815260200180602001828103825283818151815260200191508051906020019080838360005b838110156105aa57808201518184015260208101905061058f565b50505050905090810190601f1680156105d75780820380516001836020036101000a031916815260200191505b50935050505060405180910390a3600191505092915050565b600061064483600160003373ffffffffffffffffffffffffffffffffffffffff1673ffffffffffffffffffffffffffffffffffffffff1681526020019081526020016000205461091a90919063ffffffff16565b600160003373ffffffffffffffffffffffffffffffffffffffff1673ffffffffffffffffffffffffffffffffffffffff168152602001908152602001600020819055506106d983600160008773ffffffffffffffffffffffffffffffffffffffff1673ffffffffffffffffffffffffffffffffffffffff168152602001908152602001600020546109a390919063ffffffff16565b600160008673ffffffffffffffffffffffffffffffffffffffff1673ffffffffffffffffffffffffffffffffffffffff1681526020019081526020016000208190555061072584610a2b565b1561083d5760008490508073ffffffffffffffffffffffffffffffffffffffff1663c0ee0b8a3386866040518463ffffffff1660e01b8152600401808473ffffffffffffffffffffffffffffffffffffffff1673ffffffffffffffffffffffffffffffffffffffff16815260200183815260200180602001828103825283818151815260200191508051906020019080838360005b838110156107d55780820151818401526020810190506107ba565b50505050905090810190601f1680156108025780820380516001836020036101000a031916815260200191505b50945050505050600060405180830381600087803b15801561082357600080fd5b505af1158015610837573d6000803e3d6000fd5b50505050505b8373ffffffffffffffffffffffffffffffffffffffff163373ffffffffffffffffffffffffffffffffffffffff167fe19260aff97b920c7df27010903aeb9c8d2be5d310a2c67824cf3f15396e4c1685856040518083815260200180602001828103825283818151815260200191508051906020019080838360005b838110156108d45780820151818401526020810190506108b9565b50505050905090810190601f1680156109015780820380516001836020036101000a031916815260200191505b50935050505060405180910390a3600190509392505050565b600082821115610992576040517f08c379a000000000000000000000000000000000000000000000000000000000815260040180806020018281038252601e8152602001807f536166654d6174683a207375627472616374696f6e206f766572666c6f77000081525060200191505060405180910390fd5b600082840390508091505092915050565b600080828401905083811015610a21576040517f08c379a000000000000000000000000000000000000000000000000000000000815260040180806020018281038252601b8152602001807f536166654d6174683a206164646974696f6e206f766572666c6f77000000000081525060200191505060405180910390fd5b8091505092915050565b600080823b90506000811191505091905056fea265627a7a723158201e567c94ca2e6b0e466c443be6471a7f4de65e9b061ed20261a907c16683616664736f6c634300050c0032",
  "source": "pragma solidity ^0.5.1;\n\nimport \"./IERC223.sol\";\nimport \"./IERC223Recipient.sol\";\nimport \"../../math/SafeMath.sol\";\nimport \"../../utils/Address.sol\";\n\n/**\n * @title Reference implementation of the ERC223 standard token.\n */\ncontract ERC223Token is IERC223 {\n    using SafeMath for uint;\n\n    /**\n     * @dev See `IERC223.totalSupply`.\n     */\n    function totalSupply() public view returns (uint256) {\n        return _totalSupply;\n    }\n\n    mapping(address => uint) balances; // List of user balances.\n    \n    /**\n     * @dev Transfer the specified amount of tokens to the specified address.\n     *      Invokes the `tokenFallback` function if the recipient is a contract.\n     *      The token transfer fails if the recipient is a contract\n     *      but does not implement the `tokenFallback` function\n     *      or the fallback function to receive funds.\n     *\n     * @param _to    Receiver address.\n     * @param _value Amount of tokens that will be transferred.\n     * @param _data  Transaction metadata.\n     */\n    function transfer(address _to, uint _value, bytes memory _data) public returns (bool success){\n        // Standard function transfer similar to ERC20 transfer with no _data .\n        // Added due to backwards compatibility reasons .\n        balances[msg.sender] = balances[msg.sender].sub(_value);\n        balances[_to] = balances[_to].add(_value);\n        if(Address.isContract(_to)) {\n            IERC223Recipient receiver = IERC223Recipient(_to);\n            receiver.tokenFallback(msg.sender, _value, _data);\n        }\n        emit Transfer(msg.sender, _to, _value, _data);\n        return true;\n    }\n    \n    /**\n     * @dev Transfer the specified amount of tokens to the specified address.\n     *      This function works the same with the previous one\n     *      but doesn't contain `_data` param.\n     *      Added due to backwards compatibility reasons.\n     *\n     * @param _to    Receiver address.\n     * @param _value Amount of tokens that will be transferred.\n     */\n    function transfer(address _to, uint _value) public returns (bool success){\n        bytes memory empty = hex\"00000000\";\n        balances[msg.sender] = balances[msg.sender].sub(_value);\n        balances[_to] = balances[_to].add(_value);\n        if(Address.isContract(_to)) {\n            IERC223Recipient receiver = IERC223Recipient(_to);\n            receiver.tokenFallback(msg.sender, _value, empty);\n        }\n        emit Transfer(msg.sender, _to, _value, empty);\n        return true;\n    }\n\n    \n    /**\n     * @dev Returns balance of the `_owner`.\n     *\n     * @param _owner   The address whose balance will be returned.\n     * @return balance Balance of the `_owner`.\n     */\n    function balanceOf(address _owner) public view returns (uint balance) {\n        return balances[_owner];\n    }\n}\n",
  "sourcePath": "C:\\Users\\Ewan Debove\\Documents\\A5\\Blockchain Programming\\erc 223\\contracts\\ERC223\\ERC223.sol",
  "compiler": {
    "name": "solc",
    "version": "0.5.12+commit.7709ece9.Emscripten.clang"
  },
  "schemaVersion": "3.0.19",
  "updatedAt": "2019-11-20T11:14:42.036Z",
  "devdoc": {
    "methods": {
      "balanceOf(address)": {
        "details": "Returns balance of the `_owner`.",
        "params": {
          "_owner": "The address whose balance will be returned."
        },
        "return": "balance Balance of the `_owner`."
      },
      "totalSupply()": {
        "details": "See `IERC223.totalSupply`."
      },
      "transfer(address,uint256)": {
        "details": "Transfer the specified amount of tokens to the specified address.     This function works the same with the previous one     but doesn't contain `_data` param.     Added due to backwards compatibility reasons.",
        "params": {
          "_to": "Receiver address.",
          "_value": "Amount of tokens that will be transferred."
        }
      },
      "transfer(address,uint256,bytes)": {
        "details": "Transfer the specified amount of tokens to the specified address.     Invokes the `tokenFallback` function if the recipient is a contract.     The token transfer fails if the recipient is a contract     but does not implement the `tokenFallback` function     or the fallback function to receive funds.",
        "params": {
          "_data": "Transaction metadata.",
          "_to": "Receiver address.",
          "_value": "Amount of tokens that will be transferred."
        }
      }
    },
    "title": "Reference implementation of the ERC223 standard token."
  },
  "userdoc": {
    "methods": {}
  }
}