{
  "contractName": "Escargots",
  "abi": [
    {
      "inputs": [],
      "payable": false,
      "stateMutability": "nonpayable",
      "type": "constructor"
    },
    {
      "anonymous": false,
      "inputs": [
        {
          "indexed": true,
          "internalType": "address",
          "name": "owner",
          "type": "address"
        },
        {
          "indexed": true,
          "internalType": "address",
          "name": "approved",
          "type": "address"
        },
        {
          "indexed": true,
          "internalType": "uint256",
          "name": "tokenId",
          "type": "uint256"
        }
      ],
      "name": "Approval",
      "type": "event"
    },
    {
      "anonymous": false,
      "inputs": [
        {
          "indexed": true,
          "internalType": "address",
          "name": "owner",
          "type": "address"
        },
        {
          "indexed": true,
          "internalType": "address",
          "name": "operator",
          "type": "address"
        },
        {
          "indexed": false,
          "internalType": "bool",
          "name": "approved",
          "type": "bool"
        }
      ],
      "name": "ApprovalForAll",
      "type": "event"
    },
    {
      "anonymous": false,
      "inputs": [
        {
          "indexed": true,
          "internalType": "address",
          "name": "from",
          "type": "address"
        },
        {
          "indexed": true,
          "internalType": "address",
          "name": "to",
          "type": "address"
        },
        {
          "indexed": true,
          "internalType": "uint256",
          "name": "tokenId",
          "type": "uint256"
        }
      ],
      "name": "Transfer",
      "type": "event"
    },
    {
      "constant": true,
      "inputs": [
        {
          "internalType": "uint256",
          "name": "",
          "type": "uint256"
        }
      ],
      "name": "ids",
      "outputs": [
        {
          "internalType": "uint256",
          "name": "",
          "type": "uint256"
        }
      ],
      "payable": false,
      "stateMutability": "view",
      "type": "function"
    },
    {
      "constant": true,
      "inputs": [
        {
          "internalType": "bytes4",
          "name": "interfaceId",
          "type": "bytes4"
        }
      ],
      "name": "supportsInterface",
      "outputs": [
        {
          "internalType": "bool",
          "name": "",
          "type": "bool"
        }
      ],
      "payable": false,
      "stateMutability": "view",
      "type": "function"
    },
    {
      "constant": true,
      "inputs": [
        {
          "internalType": "address",
          "name": "owner",
          "type": "address"
        }
      ],
      "name": "balanceOf",
      "outputs": [
        {
          "internalType": "uint256",
          "name": "",
          "type": "uint256"
        }
      ],
      "payable": false,
      "stateMutability": "view",
      "type": "function"
    },
    {
      "constant": true,
      "inputs": [
        {
          "internalType": "uint256",
          "name": "tokenId",
          "type": "uint256"
        }
      ],
      "name": "ownerOf",
      "outputs": [
        {
          "internalType": "address",
          "name": "",
          "type": "address"
        }
      ],
      "payable": false,
      "stateMutability": "view",
      "type": "function"
    },
    {
      "constant": false,
      "inputs": [
        {
          "internalType": "address",
          "name": "to",
          "type": "address"
        },
        {
          "internalType": "uint256",
          "name": "tokenId",
          "type": "uint256"
        }
      ],
      "name": "approve",
      "outputs": [],
      "payable": false,
      "stateMutability": "nonpayable",
      "type": "function"
    },
    {
      "constant": true,
      "inputs": [
        {
          "internalType": "uint256",
          "name": "tokenId",
          "type": "uint256"
        }
      ],
      "name": "getApproved",
      "outputs": [
        {
          "internalType": "address",
          "name": "",
          "type": "address"
        }
      ],
      "payable": false,
      "stateMutability": "view",
      "type": "function"
    },
    {
      "constant": false,
      "inputs": [
        {
          "internalType": "address",
          "name": "to",
          "type": "address"
        },
        {
          "internalType": "bool",
          "name": "approved",
          "type": "bool"
        }
      ],
      "name": "setApprovalForAll",
      "outputs": [],
      "payable": false,
      "stateMutability": "nonpayable",
      "type": "function"
    },
    {
      "constant": true,
      "inputs": [
        {
          "internalType": "address",
          "name": "owner",
          "type": "address"
        },
        {
          "internalType": "address",
          "name": "operator",
          "type": "address"
        }
      ],
      "name": "isApprovedForAll",
      "outputs": [
        {
          "internalType": "bool",
          "name": "",
          "type": "bool"
        }
      ],
      "payable": false,
      "stateMutability": "view",
      "type": "function"
    },
    {
      "constant": false,
      "inputs": [
        {
          "internalType": "address",
          "name": "from",
          "type": "address"
        },
        {
          "internalType": "address",
          "name": "to",
          "type": "address"
        },
        {
          "internalType": "uint256",
          "name": "tokenId",
          "type": "uint256"
        }
      ],
      "name": "transferFrom",
      "outputs": [],
      "payable": false,
      "stateMutability": "nonpayable",
      "type": "function"
    },
    {
      "constant": false,
      "inputs": [
        {
          "internalType": "address",
          "name": "from",
          "type": "address"
        },
        {
          "internalType": "address",
          "name": "to",
          "type": "address"
        },
        {
          "internalType": "uint256",
          "name": "tokenId",
          "type": "uint256"
        }
      ],
      "name": "safeTransferFrom",
      "outputs": [],
      "payable": false,
      "stateMutability": "nonpayable",
      "type": "function"
    },
    {
      "constant": false,
      "inputs": [
        {
          "internalType": "address",
          "name": "from",
          "type": "address"
        },
        {
          "internalType": "address",
          "name": "to",
          "type": "address"
        },
        {
          "internalType": "uint256",
          "name": "tokenId",
          "type": "uint256"
        },
        {
          "internalType": "bytes",
          "name": "_data",
          "type": "bytes"
        }
      ],
      "name": "safeTransferFrom",
      "outputs": [],
      "payable": false,
      "stateMutability": "nonpayable",
      "type": "function"
    },
    {
      "constant": false,
      "inputs": [
        {
          "internalType": "address",
          "name": "to",
          "type": "address"
        },
        {
          "internalType": "uint256",
          "name": "tokenId",
          "type": "uint256"
        }
      ],
      "name": "_mint",
      "outputs": [],
      "payable": false,
      "stateMutability": "nonpayable",
      "type": "function"
    },
    {
      "constant": false,
      "inputs": [
        {
          "internalType": "uint256",
          "name": "tokenId1",
          "type": "uint256"
        },
        {
          "internalType": "uint256",
          "name": "tokenId2",
          "type": "uint256"
        }
      ],
      "name": "mint",
      "outputs": [],
      "payable": false,
      "stateMutability": "nonpayable",
      "type": "function"
    }
  ],
  "bytecode": "0x608060405234801561001057600080fd5b506100276301ffc9a760e01b61002c60201b60201c565b610134565b63ffffffff60e01b817bffffffffffffffffffffffffffffffffffffffffffffffffffffffff191614156100c8576040517f08c379a000000000000000000000000000000000000000000000000000000000815260040180806020018281038252601c8152602001807f4552433136353a20696e76616c696420696e746572666163652069640000000081525060200191505060405180910390fd5b6001600080837bffffffffffffffffffffffffffffffffffffffffffffffffffffffff19167bffffffffffffffffffffffffffffffffffffffffffffffffffffffff1916815260200190815260200160002060006101000a81548160ff02191690831515021790555050565b61152f806101436000396000f3fe608060405234801561001057600080fd5b50600436106100cf5760003560e01c80634e6ec2471161008c578063a22cb46511610066578063a22cb4651461041d578063b88d4fde1461046d578063e985e9c514610572578063fac333ac146105ee576100cf565b80634e6ec247146103095780636352211e1461035757806370a08231146103c5576100cf565b806301ffc9a7146100d4578063081812fc14610139578063095ea7b3146101a75780631b2ef1ca146101f557806323b872dd1461022d57806342842e0e1461029b575b600080fd5b61011f600480360360208110156100ea57600080fd5b8101908080357bffffffffffffffffffffffffffffffffffffffffffffffffffffffff19169060200190929190505050610630565b604051808215151515815260200191505060405180910390f35b6101656004803603602081101561014f57600080fd5b8101908080359060200190929190505050610697565b604051808273ffffffffffffffffffffffffffffffffffffffff1673ffffffffffffffffffffffffffffffffffffffff16815260200191505060405180910390f35b6101f3600480360360408110156101bd57600080fd5b81019080803573ffffffffffffffffffffffffffffffffffffffff169060200190929190803590602001909291905050506106e6565b005b61022b6004803603604081101561020b57600080fd5b810190808035906020019092919080359060200190929190505050610827565b005b6102996004803603606081101561024357600080fd5b81019080803573ffffffffffffffffffffffffffffffffffffffff169060200190929190803573ffffffffffffffffffffffffffffffffffffffff169060200190929190803590602001909291905050506108c0565b005b610307600480360360608110156102b157600080fd5b81019080803573ffffffffffffffffffffffffffffffffffffffff169060200190929190803573ffffffffffffffffffffffffffffffffffffffff1690602001909291908035906020019092919050505061098b565b005b6103556004803603604081101561031f57600080fd5b81019080803573ffffffffffffffffffffffffffffffffffffffff169060200190929190803590602001909291905050506109ab565b005b6103836004803603602081101561036d57600080fd5b8101908080359060200190929190505050610a4f565b604051808273ffffffffffffffffffffffffffffffffffffffff1673ffffffffffffffffffffffffffffffffffffffff16815260200191505060405180910390f35b610407600480360360208110156103db57600080fd5b81019080803573ffffffffffffffffffffffffffffffffffffffff169060200190929190505050610acb565b6040518082815260200191505060405180910390f35b61046b6004803603604081101561043357600080fd5b81019080803573ffffffffffffffffffffffffffffffffffffffff169060200190929190803515159060200190929190505050610b4d565b005b6105706004803603608081101561048357600080fd5b81019080803573ffffffffffffffffffffffffffffffffffffffff169060200190929190803573ffffffffffffffffffffffffffffffffffffffff16906020019092919080359060200190929190803590602001906401000000008111156104ea57600080fd5b8201836020820111156104fc57600080fd5b8035906020019184600183028401116401000000008311171561051e57600080fd5b91908080601f016020809104026020016040519081016040528093929190818152602001838380828437600081840152601f19601f820116905080830192505050505050509192919290505050610c87565b005b6105d46004803603604081101561058857600080fd5b81019080803573ffffffffffffffffffffffffffffffffffffffff169060200190929190803573ffffffffffffffffffffffffffffffffffffffff169060200190929190505050610cad565b604051808215151515815260200191505060405180910390f35b61061a6004803603602081101561060457600080fd5b8101908080359060200190929190505050610d41565b6040518082815260200191505060405180910390f35b6000806000837bffffffffffffffffffffffffffffffffffffffffffffffffffffffff19167bffffffffffffffffffffffffffffffffffffffffffffffffffffffff1916815260200190815260200160002060009054906101000a900460ff169050919050565b60006106a282610d62565b6106ab57600080fd5b6002600083815260200190815260200160002060009054906101000a900473ffffffffffffffffffffffffffffffffffffffff169050919050565b60006106f182610a4f565b90508073ffffffffffffffffffffffffffffffffffffffff168373ffffffffffffffffffffffffffffffffffffffff16141561072c57600080fd5b8073ffffffffffffffffffffffffffffffffffffffff163373ffffffffffffffffffffffffffffffffffffffff16148061076c575061076b8133610cad565b5b61077557600080fd5b826002600084815260200190815260200160002060006101000a81548173ffffffffffffffffffffffffffffffffffffffff021916908373ffffffffffffffffffffffffffffffffffffffff160217905550818373ffffffffffffffffffffffffffffffffffffffff168273ffffffffffffffffffffffffffffffffffffffff167f8c5be1e5ebec7d5bd14f71427d1e84f3dd0314c0f7b2291e5b200ac8c7c3b92560405160405180910390a4505050565b3373ffffffffffffffffffffffffffffffffffffffff1661084783610a4f565b73ffffffffffffffffffffffffffffffffffffffff161461086757600080fd5b3373ffffffffffffffffffffffffffffffffffffffff1661088782610a4f565b73ffffffffffffffffffffffffffffffffffffffff16146108a757600080fd5b600060058054905090506108bb33826109ab565b505050565b6108ca3382610dd4565b6108d357600080fd5b600073ffffffffffffffffffffffffffffffffffffffff168273ffffffffffffffffffffffffffffffffffffffff16141561090d57600080fd5b6109178382610e69565b6109218382610f68565b61092b8282611095565b808273ffffffffffffffffffffffffffffffffffffffff168473ffffffffffffffffffffffffffffffffffffffff167fddf252ad1be2c89b69c2b068fc378daa952ba7f163c4a11628f55a4df523b3ef60405160405180910390a4505050565b6109a683838360405180602001604052806000815250610c87565b505050565b600073ffffffffffffffffffffffffffffffffffffffff168273ffffffffffffffffffffffffffffffffffffffff1614156109e557600080fd5b6109ef8282611095565b808273ffffffffffffffffffffffffffffffffffffffff16600073ffffffffffffffffffffffffffffffffffffffff167fddf252ad1be2c89b69c2b068fc378daa952ba7f163c4a11628f55a4df523b3ef60405160405180910390a45050565b6000806001600084815260200190815260200160002060009054906101000a900473ffffffffffffffffffffffffffffffffffffffff169050600073ffffffffffffffffffffffffffffffffffffffff168173ffffffffffffffffffffffffffffffffffffffff161415610ac257600080fd5b80915050919050565b60008073ffffffffffffffffffffffffffffffffffffffff168273ffffffffffffffffffffffffffffffffffffffff161415610b0657600080fd5b600360008373ffffffffffffffffffffffffffffffffffffffff1673ffffffffffffffffffffffffffffffffffffffff168152602001908152602001600020549050919050565b3373ffffffffffffffffffffffffffffffffffffffff168273ffffffffffffffffffffffffffffffffffffffff161415610b8657600080fd5b80600460003373ffffffffffffffffffffffffffffffffffffffff1673ffffffffffffffffffffffffffffffffffffffff16815260200190815260200160002060008473ffffffffffffffffffffffffffffffffffffffff1673ffffffffffffffffffffffffffffffffffffffff16815260200190815260200160002060006101000a81548160ff0219169083151502179055508173ffffffffffffffffffffffffffffffffffffffff163373ffffffffffffffffffffffffffffffffffffffff167f17307eab39ab6107e8899845ad3d59bd9653f200f220920489ca2b5937696c3183604051808215151515815260200191505060405180910390a35050565b610c928484846108c0565b610c9e848484846111ed565b610ca757600080fd5b50505050565b6000600460008473ffffffffffffffffffffffffffffffffffffffff1673ffffffffffffffffffffffffffffffffffffffff16815260200190815260200160002060008373ffffffffffffffffffffffffffffffffffffffff1673ffffffffffffffffffffffffffffffffffffffff16815260200190815260200160002060009054906101000a900460ff16905092915050565b60058181548110610d4e57fe5b906000526020600020016000915090505481565b6000806001600084815260200190815260200160002060009054906101000a900473ffffffffffffffffffffffffffffffffffffffff169050600073ffffffffffffffffffffffffffffffffffffffff168173ffffffffffffffffffffffffffffffffffffffff161415915050919050565b600080610de083610a4f565b90508073ffffffffffffffffffffffffffffffffffffffff168473ffffffffffffffffffffffffffffffffffffffff161480610e4f57508373ffffffffffffffffffffffffffffffffffffffff16610e3784610697565b73ffffffffffffffffffffffffffffffffffffffff16145b80610e605750610e5f8185610cad565b5b91505092915050565b8173ffffffffffffffffffffffffffffffffffffffff16610e8982610a4f565b73ffffffffffffffffffffffffffffffffffffffff1614610ea957600080fd5b600073ffffffffffffffffffffffffffffffffffffffff166002600083815260200190815260200160002060009054906101000a900473ffffffffffffffffffffffffffffffffffffffff1673ffffffffffffffffffffffffffffffffffffffff1614610f645760006002600083815260200190815260200160002060006101000a81548173ffffffffffffffffffffffffffffffffffffffff021916908373ffffffffffffffffffffffffffffffffffffffff1602179055505b5050565b8173ffffffffffffffffffffffffffffffffffffffff16610f8882610a4f565b73ffffffffffffffffffffffffffffffffffffffff1614610fa857600080fd5b610ffb6001600360008573ffffffffffffffffffffffffffffffffffffffff1673ffffffffffffffffffffffffffffffffffffffff168152602001908152602001600020546113d690919063ffffffff16565b600360008473ffffffffffffffffffffffffffffffffffffffff1673ffffffffffffffffffffffffffffffffffffffff1681526020019081526020016000208190555060006001600083815260200190815260200160002060006101000a81548173ffffffffffffffffffffffffffffffffffffffff021916908373ffffffffffffffffffffffffffffffffffffffff1602179055505050565b600073ffffffffffffffffffffffffffffffffffffffff166001600083815260200190815260200160002060009054906101000a900473ffffffffffffffffffffffffffffffffffffffff1673ffffffffffffffffffffffffffffffffffffffff161461110157600080fd5b816001600083815260200190815260200160002060006101000a81548173ffffffffffffffffffffffffffffffffffffffff021916908373ffffffffffffffffffffffffffffffffffffffff1602179055506111a66001600360008573ffffffffffffffffffffffffffffffffffffffff1673ffffffffffffffffffffffffffffffffffffffff1681526020019081526020016000205461145f90919063ffffffff16565b600360008473ffffffffffffffffffffffffffffffffffffffff1673ffffffffffffffffffffffffffffffffffffffff168152602001908152602001600020819055505050565b600061120e8473ffffffffffffffffffffffffffffffffffffffff166114e7565b61121b57600190506113ce565b60008473ffffffffffffffffffffffffffffffffffffffff1663150b7a02338887876040518563ffffffff1660e01b8152600401808573ffffffffffffffffffffffffffffffffffffffff1673ffffffffffffffffffffffffffffffffffffffff1681526020018473ffffffffffffffffffffffffffffffffffffffff1673ffffffffffffffffffffffffffffffffffffffff16815260200183815260200180602001828103825283818151815260200191508051906020019080838360005b838110156112f65780820151818401526020810190506112db565b50505050905090810190601f1680156113235780820380516001836020036101000a031916815260200191505b5095505050505050602060405180830381600087803b15801561134557600080fd5b505af1158015611359573d6000803e3d6000fd5b505050506040513d602081101561136f57600080fd5b8101908080519060200190929190505050905063150b7a0260e01b7bffffffffffffffffffffffffffffffffffffffffffffffffffffffff1916817bffffffffffffffffffffffffffffffffffffffffffffffffffffffff1916149150505b949350505050565b60008282111561144e576040517f08c379a000000000000000000000000000000000000000000000000000000000815260040180806020018281038252601e8152602001807f536166654d6174683a207375627472616374696f6e206f766572666c6f77000081525060200191505060405180910390fd5b600082840390508091505092915050565b6000808284019050838110156114dd576040517f08c379a000000000000000000000000000000000000000000000000000000000815260040180806020018281038252601b8152602001807f536166654d6174683a206164646974696f6e206f766572666c6f77000000000081525060200191505060405180910390fd5b8091505092915050565b600080823b90506000811191505091905056fea265627a7a7231582072762d67e09793490620086fdbb317cf04eacbce3d071931954ea49505293e2464736f6c634300050c0032",
  "source": "pragma solidity >=0.4.21 <0.6.0;\r\n\r\nimport \"../node_modules/@openzeppelin/contracts/token/ERC721/IERC721.sol\";\r\nimport \"../node_modules/@openzeppelin/contracts/token/ERC721/IERC721Receiver.sol\";\r\nimport \"../math/SafeMath.sol\";\r\nimport \"../utils/Address.sol\";\r\nimport \"../node_modules/@openzeppelin/contracts/introspection/ERC165.sol\";\r\n\r\n\r\ncontract Escargots is ERC165, IERC721 {\r\n\r\n  using SafeMath for uint256;\r\n  using Address for address;\r\n\r\n  // Equals to `bytes4(keccak256(\"onERC721Received(address,address,uint256,bytes)\"))`\r\n  // which can be also obtained as `IERC721Receiver(0).onERC721Received.selector`\r\n  bytes4 private constant _ERC721_RECEIVED = 0x150b7a02;\r\n\r\n  // Mapping from token ID to owner\r\n  mapping (uint256 => address) private _tokenOwner;\r\n\r\n  // Mapping from token ID to approved address\r\n  mapping (uint256 => address) private _tokenApprovals;\r\n\r\n  // Mapping from owner to number of owned token\r\n  mapping (address => uint256) private _ownedTokensCount;\r\n\r\n  // Mapping from owner to operator approvals\r\n  mapping (address => mapping (address => bool)) private _operatorApprovals;\r\n\r\n  bytes4 private constant _InterfaceId_ERC721 = 0x80ac58cd;\r\n  /*\r\n   * 0x80ac58cd ===\r\n   *   bytes4(keccak256('balanceOf(address)')) ^\r\n   *   bytes4(keccak256('ownerOf(uint256)')) ^\r\n   *   bytes4(keccak256('approve(address,uint256)')) ^\r\n   *   bytes4(keccak256('getApproved(uint256)')) ^\r\n   *   bytes4(keccak256('setApprovalForAll(address,bool)')) ^\r\n   *   bytes4(keccak256('isApprovedForAll(address,address)')) ^\r\n   *   bytes4(keccak256('transferFrom(address,address,uint256)')) ^\r\n   *   bytes4(keccak256('safeTransferFrom(address,address,uint256)')) ^\r\n   *   bytes4(keccak256('safeTransferFrom(address,address,uint256,bytes)'))\r\n   */\r\n  \r\n  uint256[] public ids;\r\n\r\n  constructor()\r\n    public\r\n  {\r\n    // register the supported interfaces to conform to ERC721 via ERC165\r\n\r\n  }\r\n\r\n  /**\r\n   * @dev Gets the balance of the specified address\r\n   * @param owner address to query the balance of\r\n   * @return uint256 representing the amount owned by the passed address\r\n   */\r\n  function balanceOf(address owner) public view returns (uint256) {\r\n    require(owner != address(0));\r\n    return _ownedTokensCount[owner];\r\n  }\r\n\r\n  /**\r\n   * @dev Gets the owner of the specified token ID\r\n   * @param tokenId uint256 ID of the token to query the owner of\r\n   * @return owner address currently marked as the owner of the given token ID\r\n   */\r\n  function ownerOf(uint256 tokenId) public view returns (address) {\r\n    address owner = _tokenOwner[tokenId];\r\n    require(owner != address(0));\r\n    return owner;\r\n  }\r\n\r\n  /**\r\n   * @dev Approves another address to transfer the given token ID\r\n   * The zero address indicates there is no approved address.\r\n   * There can only be one approved address per token at a given time.\r\n   * Can only be called by the token owner or an approved operator.\r\n   * @param to address to be approved for the given token ID\r\n   * @param tokenId uint256 ID of the token to be approved\r\n   */\r\n  function approve(address to, uint256 tokenId) public {\r\n    address owner = ownerOf(tokenId);\r\n    require(to != owner);\r\n    require(msg.sender == owner || isApprovedForAll(owner, msg.sender));\r\n\r\n    _tokenApprovals[tokenId] = to;\r\n    emit Approval(owner, to, tokenId);\r\n  }\r\n\r\n  /**\r\n   * @dev Gets the approved address for a token ID, or zero if no address set\r\n   * Reverts if the token ID does not exist.\r\n   * @param tokenId uint256 ID of the token to query the approval of\r\n   * @return address currently approved for the given token ID\r\n   */\r\n  function getApproved(uint256 tokenId) public view returns (address) {\r\n    require(_exists(tokenId));\r\n    return _tokenApprovals[tokenId];\r\n  }\r\n\r\n  /**\r\n   * @dev Sets or unsets the approval of a given operator\r\n   * An operator is allowed to transfer all tokens of the sender on their behalf\r\n   * @param to operator address to set the approval\r\n   * @param approved representing the status of the approval to be set\r\n   */\r\n  function setApprovalForAll(address to, bool approved) public {\r\n    require(to != msg.sender);\r\n    _operatorApprovals[msg.sender][to] = approved;\r\n    emit ApprovalForAll(msg.sender, to, approved);\r\n  }\r\n\r\n  /**\r\n   * @dev Tells whether an operator is approved by a given owner\r\n   * @param owner owner address which you want to query the approval of\r\n   * @param operator operator address which you want to query the approval of\r\n   * @return bool whether the given operator is approved by the given owner\r\n   */\r\n  function isApprovedForAll(\r\n    address owner,\r\n    address operator\r\n  )\r\n    public\r\n    view\r\n    returns (bool)\r\n  {\r\n    return _operatorApprovals[owner][operator];\r\n  }\r\n\r\n  /**\r\n   * @dev Transfers the ownership of a given token ID to another address\r\n   * Usage of this method is discouraged, use `safeTransferFrom` whenever possible\r\n   * Requires the msg sender to be the owner, approved, or operator\r\n   * @param from current owner of the token\r\n   * @param to address to receive the ownership of the given token ID\r\n   * @param tokenId uint256 ID of the token to be transferred\r\n  */\r\n  function transferFrom(\r\n    address from,\r\n    address to,\r\n    uint256 tokenId\r\n  )\r\n    public\r\n  {\r\n    require(_isApprovedOrOwner(msg.sender, tokenId));\r\n    require(to != address(0));\r\n\r\n    _clearApproval(from, tokenId);\r\n    _removeTokenFrom(from, tokenId);\r\n    _addTokenTo(to, tokenId);\r\n\r\n    emit Transfer(from, to, tokenId);\r\n  }\r\n\r\n  /**\r\n   * @dev Safely transfers the ownership of a given token ID to another address\r\n   * If the target address is a contract, it must implement `onERC721Received`,\r\n   * which is called upon a safe transfer, and return the magic value\r\n   * `bytes4(keccak256(\"onERC721Received(address,address,uint256,bytes)\"))`; otherwise,\r\n   * the transfer is reverted.\r\n   *\r\n   * Requires the msg sender to be the owner, approved, or operator\r\n   * @param from current owner of the token\r\n   * @param to address to receive the ownership of the given token ID\r\n   * @param tokenId uint256 ID of the token to be transferred\r\n  */\r\n  function safeTransferFrom(\r\n    address from,\r\n    address to,\r\n    uint256 tokenId\r\n  )\r\n    public\r\n  {\r\n    // solium-disable-next-line arg-overflow\r\n    safeTransferFrom(from, to, tokenId, \"\");\r\n  }\r\n\r\n  /**\r\n   * @dev Safely transfers the ownership of a given token ID to another address\r\n   * If the target address is a contract, it must implement `onERC721Received`,\r\n   * which is called upon a safe transfer, and return the magic value\r\n   * `bytes4(keccak256(\"onERC721Received(address,address,uint256,bytes)\"))`; otherwise,\r\n   * the transfer is reverted.\r\n   * Requires the msg sender to be the owner, approved, or operator\r\n   * @param from current owner of the token\r\n   * @param to address to receive the ownership of the given token ID\r\n   * @param tokenId uint256 ID of the token to be transferred\r\n   * @param _data bytes data to send along with a safe transfer check\r\n   */\r\n  function safeTransferFrom(\r\n    address from,\r\n    address to,\r\n    uint256 tokenId,\r\n    bytes memory _data\r\n  )\r\n    public\r\n  {\r\n    transferFrom(from, to, tokenId);\r\n    // solium-disable-next-line arg-overflow\r\n    require(_checkOnERC721Received(from, to, tokenId, _data));\r\n  }\r\n\r\n  /**\r\n   * @dev Returns whether the specified token exists\r\n   * @param tokenId uint256 ID of the token to query the existence of\r\n   * @return whether the token exists\r\n   */\r\n  function _exists(uint256 tokenId) internal view returns (bool) {\r\n    address owner = _tokenOwner[tokenId];\r\n    return owner != address(0);\r\n  }\r\n\r\n  /**\r\n   * @dev Returns whether the given spender can transfer a given token ID\r\n   * @param spender address of the spender to query\r\n   * @param tokenId uint256 ID of the token to be transferred\r\n   * @return bool whether the msg.sender is approved for the given token ID,\r\n   *  is an operator of the owner, or is the owner of the token\r\n   */\r\n  function _isApprovedOrOwner(\r\n    address spender,\r\n    uint256 tokenId\r\n  )\r\n    internal\r\n    view\r\n    returns (bool)\r\n  {\r\n    address owner = ownerOf(tokenId);\r\n    // Disable solium check because of\r\n    // https://github.com/duaraghav8/Solium/issues/175\r\n    // solium-disable-next-line operator-whitespace\r\n    return (\r\n      spender == owner ||\r\n      getApproved(tokenId) == spender ||\r\n      isApprovedForAll(owner, spender)\r\n    );\r\n  }\r\n\r\n  /**\r\n   * @dev Internal function to mint a new token\r\n   * Reverts if the given token ID already exists\r\n   * @param to The address that will own the minted token\r\n   * @param tokenId uint256 ID of the token to be minted by the msg.sender\r\n   */\r\n  function _mint(address to, uint256 tokenId) public {// TO DO change back to internal\r\n    require(to != address(0));\r\n    _addTokenTo(to, tokenId);\r\n    emit Transfer(address(0), to, tokenId);\r\n  }\r\n\r\n  /**\r\n   * @dev Internal function to burn a specific token\r\n   * Reverts if the token does not exist\r\n   * @param tokenId uint256 ID of the token being burned by the msg.sender\r\n   */\r\n  function _burn(address owner, uint256 tokenId) internal {\r\n    _clearApproval(owner, tokenId);\r\n    _removeTokenFrom(owner, tokenId);\r\n    emit Transfer(owner, address(0), tokenId);\r\n  }\r\n\r\n  /**\r\n   * @dev Internal function to add a token ID to the list of a given address\r\n   * Note that this function is left internal to make ERC721Enumerable possible, but is not\r\n   * intended to be called by custom derived contracts: in particular, it emits no Transfer event.\r\n   * @param to address representing the new owner of the given token ID\r\n   * @param tokenId uint256 ID of the token to be added to the tokens list of the given address\r\n   */\r\n  function _addTokenTo(address to, uint256 tokenId) internal {\r\n    require(_tokenOwner[tokenId] == address(0));\r\n    _tokenOwner[tokenId] = to;\r\n    _ownedTokensCount[to] = _ownedTokensCount[to].add(1);\r\n  }\r\n\r\n  /**\r\n   * @dev Internal function to remove a token ID from the list of a given address\r\n   * Note that this function is left internal to make ERC721Enumerable possible, but is not\r\n   * intended to be called by custom derived contracts: in particular, it emits no Transfer event,\r\n   * and doesn't clear approvals.\r\n   * @param from address representing the previous owner of the given token ID\r\n   * @param tokenId uint256 ID of the token to be removed from the tokens list of the given address\r\n   */\r\n  function _removeTokenFrom(address from, uint256 tokenId) internal {\r\n    require(ownerOf(tokenId) == from);\r\n    _ownedTokensCount[from] = _ownedTokensCount[from].sub(1);\r\n    _tokenOwner[tokenId] = address(0);\r\n  }\r\n\r\n  /**\r\n   * @dev Internal function to invoke `onERC721Received` on a target address\r\n   * The call is not executed if the target address is not a contract\r\n   * @param from address representing the previous owner of the given token ID\r\n   * @param to target address that will receive the tokens\r\n   * @param tokenId uint256 ID of the token to be transferred\r\n   * @param _data bytes optional data to send along with the call\r\n   * @return whether the call correctly returned the expected magic value\r\n   */\r\n  function _checkOnERC721Received(\r\n    address from,\r\n    address to,\r\n    uint256 tokenId,\r\n    bytes memory _data\r\n  )\r\n    internal\r\n    returns (bool)\r\n  {\r\n    if (!to.isContract()) {\r\n      return true;\r\n    }\r\n    bytes4 retval = IERC721Receiver(to).onERC721Received(\r\n      msg.sender, from, tokenId, _data);\r\n    return (retval == _ERC721_RECEIVED);\r\n  }\r\n\r\n  /**\r\n   * @dev Private function to clear current approval of a given token ID\r\n   * Reverts if the given address is not indeed the owner of the token\r\n   * @param owner owner of the token\r\n   * @param tokenId uint256 ID of the token to be transferred\r\n   */\r\n  function _clearApproval(address owner, uint256 tokenId) private {\r\n    require(ownerOf(tokenId) == owner);\r\n    if (_tokenApprovals[tokenId] != address(0)) {\r\n      _tokenApprovals[tokenId] = address(0);\r\n    }\r\n  }\r\n\r\n  //function to create a new token from two existing tokens  \r\n  function mint(uint256 tokenId1, uint256 tokenId2) public {\r\n  \trequire(ownerOf(tokenId1) == msg.sender);//you can only use tokens you own\r\n  \trequire(ownerOf(tokenId2) == msg.sender);\r\n\r\n  \tuint256 tokenId = ids.length;//create new id for new token\r\n\r\n  \t_mint(msg.sender, tokenId);//create a new token\r\n  }\r\n\r\n\r\n}",
  "sourcePath": "C:\\Users\\Ewan Debove\\Documents\\A5\\Blockchain Programming\\ERC721\\contracts\\Escargots.sol",
  "compiler": {
    "name": "solc",
    "version": "0.5.12+commit.7709ece9.Emscripten.clang"
  },
  "schemaVersion": "3.0.19",
  "updatedAt": "2019-12-01T18:27:38.260Z",
  "devdoc": {
    "methods": {
      "_mint(address,uint256)": {
        "details": "Internal function to mint a new token Reverts if the given token ID already exists",
        "params": {
          "to": "The address that will own the minted token",
          "tokenId": "uint256 ID of the token to be minted by the msg.sender"
        }
      },
      "approve(address,uint256)": {
        "details": "Approves another address to transfer the given token ID The zero address indicates there is no approved address. There can only be one approved address per token at a given time. Can only be called by the token owner or an approved operator.",
        "params": {
          "to": "address to be approved for the given token ID",
          "tokenId": "uint256 ID of the token to be approved"
        }
      },
      "balanceOf(address)": {
        "details": "Gets the balance of the specified address",
        "params": {
          "owner": "address to query the balance of"
        },
        "return": "uint256 representing the amount owned by the passed address"
      },
      "getApproved(uint256)": {
        "details": "Gets the approved address for a token ID, or zero if no address set Reverts if the token ID does not exist.",
        "params": {
          "tokenId": "uint256 ID of the token to query the approval of"
        },
        "return": "address currently approved for the given token ID"
      },
      "isApprovedForAll(address,address)": {
        "details": "Tells whether an operator is approved by a given owner",
        "params": {
          "operator": "operator address which you want to query the approval of",
          "owner": "owner address which you want to query the approval of"
        },
        "return": "bool whether the given operator is approved by the given owner"
      },
      "ownerOf(uint256)": {
        "details": "Gets the owner of the specified token ID",
        "params": {
          "tokenId": "uint256 ID of the token to query the owner of"
        },
        "return": "owner address currently marked as the owner of the given token ID"
      },
      "safeTransferFrom(address,address,uint256)": {
        "details": "Safely transfers the ownership of a given token ID to another address If the target address is a contract, it must implement `onERC721Received`, which is called upon a safe transfer, and return the magic value `bytes4(keccak256(\"onERC721Received(address,address,uint256,bytes)\"))`; otherwise, the transfer is reverted.    * Requires the msg sender to be the owner, approved, or operator",
        "params": {
          "from": "current owner of the token",
          "to": "address to receive the ownership of the given token ID",
          "tokenId": "uint256 ID of the token to be transferred"
        }
      },
      "safeTransferFrom(address,address,uint256,bytes)": {
        "details": "Safely transfers the ownership of a given token ID to another address If the target address is a contract, it must implement `onERC721Received`, which is called upon a safe transfer, and return the magic value `bytes4(keccak256(\"onERC721Received(address,address,uint256,bytes)\"))`; otherwise, the transfer is reverted. Requires the msg sender to be the owner, approved, or operator",
        "params": {
          "_data": "bytes data to send along with a safe transfer check",
          "from": "current owner of the token",
          "to": "address to receive the ownership of the given token ID",
          "tokenId": "uint256 ID of the token to be transferred"
        }
      },
      "setApprovalForAll(address,bool)": {
        "details": "Sets or unsets the approval of a given operator An operator is allowed to transfer all tokens of the sender on their behalf",
        "params": {
          "approved": "representing the status of the approval to be set",
          "to": "operator address to set the approval"
        }
      },
      "supportsInterface(bytes4)": {
        "details": "See {IERC165-supportsInterface}.     * Time complexity O(1), guaranteed to always use less than 30 000 gas."
      },
      "transferFrom(address,address,uint256)": {
        "details": "Transfers the ownership of a given token ID to another address Usage of this method is discouraged, use `safeTransferFrom` whenever possible Requires the msg sender to be the owner, approved, or operator",
        "params": {
          "from": "current owner of the token",
          "to": "address to receive the ownership of the given token ID",
          "tokenId": "uint256 ID of the token to be transferred"
        }
      }
    }
  },
  "userdoc": {
    "methods": {}
  }
}