{
  "contractName": "TheSlimeRoad",
  "abi": [
    {
      "constant": true,
      "inputs": [],
      "name": "escargotsAddress",
      "outputs": [
        {
          "internalType": "address",
          "name": "",
          "type": "address"
        }
      ],
      "payable": false,
      "stateMutability": "view",
      "type": "function"
    },
    {
      "constant": true,
      "inputs": [
        {
          "internalType": "uint256",
          "name": "",
          "type": "uint256"
        }
      ],
      "name": "salesId",
      "outputs": [
        {
          "internalType": "uint256",
          "name": "tokenId",
          "type": "uint256"
        },
        {
          "internalType": "address payable",
          "name": "seller",
          "type": "address"
        },
        {
          "internalType": "uint256",
          "name": "price",
          "type": "uint256"
        },
        {
          "internalType": "bool",
          "name": "auction",
          "type": "bool"
        },
        {
          "internalType": "uint256",
          "name": "bid",
          "type": "uint256"
        },
        {
          "internalType": "address",
          "name": "bidder",
          "type": "address"
        }
      ],
      "payable": false,
      "stateMutability": "view",
      "type": "function"
    },
    {
      "constant": false,
      "inputs": [
        {
          "internalType": "address",
          "name": "_escargotsAddress",
          "type": "address"
        }
      ],
      "name": "setEscargotsAddress",
      "outputs": [],
      "payable": false,
      "stateMutability": "nonpayable",
      "type": "function"
    },
    {
      "constant": false,
      "inputs": [
        {
          "internalType": "uint256",
          "name": "_tokenId",
          "type": "uint256"
        },
        {
          "internalType": "uint256",
          "name": "_price",
          "type": "uint256"
        }
      ],
      "name": "deposit",
      "outputs": [],
      "payable": false,
      "stateMutability": "nonpayable",
      "type": "function"
    },
    {
      "constant": false,
      "inputs": [
        {
          "internalType": "uint256",
          "name": "_tokenId",
          "type": "uint256"
        }
      ],
      "name": "cancelSale",
      "outputs": [],
      "payable": false,
      "stateMutability": "nonpayable",
      "type": "function"
    },
    {
      "constant": false,
      "inputs": [
        {
          "internalType": "uint256",
          "name": "_saleId",
          "type": "uint256"
        }
      ],
      "name": "buy",
      "outputs": [],
      "payable": true,
      "stateMutability": "payable",
      "type": "function"
    },
    {
      "constant": false,
      "inputs": [
        {
          "internalType": "uint256",
          "name": "_tokenId",
          "type": "uint256"
        },
        {
          "internalType": "uint256",
          "name": "_price",
          "type": "uint256"
        }
      ],
      "name": "putAuction",
      "outputs": [],
      "payable": true,
      "stateMutability": "payable",
      "type": "function"
    },
    {
      "constant": false,
      "inputs": [
        {
          "internalType": "uint256",
          "name": "_saleId",
          "type": "uint256"
        }
      ],
      "name": "bid",
      "outputs": [],
      "payable": true,
      "stateMutability": "payable",
      "type": "function"
    },
    {
      "constant": false,
      "inputs": [
        {
          "internalType": "uint256",
          "name": "_saleId",
          "type": "uint256"
        }
      ],
      "name": "cashout",
      "outputs": [],
      "payable": true,
      "stateMutability": "payable",
      "type": "function"
    }
  ],
  "bytecode": "0x60806040526000809054906101000a900473ffffffffffffffffffffffffffffffffffffffff16600160006101000a81548173ffffffffffffffffffffffffffffffffffffffff021916908373ffffffffffffffffffffffffffffffffffffffff16021790555034801561007257600080fd5b5061167d806100826000396000f3fe6080604052600436106100865760003560e01c8063a9e732bb11610059578063a9e732bb1461022f578063ace12b6c1461025d578063bd94b00514610295578063d96a094a146102d0578063e2bbb158146102fe57610086565b8063454a2ab31461008b5780634b33d4fd146100b957806375913c74146101875780639eba222d146101d8575b600080fd5b6100b7600480360360208110156100a157600080fd5b8101908080359060200190929190505050610343565b005b3480156100c557600080fd5b506100f2600480360360208110156100dc57600080fd5b81019080803590602001909291905050506103f0565b604051808781526020018673ffffffffffffffffffffffffffffffffffffffff1673ffffffffffffffffffffffffffffffffffffffff168152602001858152602001841515151581526020018381526020018273ffffffffffffffffffffffffffffffffffffffff1673ffffffffffffffffffffffffffffffffffffffff168152602001965050505050505060405180910390f35b34801561019357600080fd5b506101d6600480360360208110156101aa57600080fd5b81019080803573ffffffffffffffffffffffffffffffffffffffff169060200190929190505050610486565b005b3480156101e457600080fd5b506101ed6104c9565b604051808273ffffffffffffffffffffffffffffffffffffffff1673ffffffffffffffffffffffffffffffffffffffff16815260200191505060405180910390f35b61025b6004803603602081101561024557600080fd5b81019080803590602001909291905050506104ee565b005b6102936004803603604081101561027357600080fd5b8101908080359060200190929190803590602001909291905050506109e5565b005b3480156102a157600080fd5b506102ce600480360360208110156102b857600080fd5b8101908080359060200190929190505050610b34565b005b6102fc600480360360208110156102e657600080fd5b8101908080359060200190929190505050610d77565b005b34801561030a57600080fd5b506103416004803603604081101561032157600080fd5b8101908080359060200190929190803590602001909291905050506111b6565b005b346003828154811061035157fe5b9060005260206000209060060201600401541061036d57600080fd5b346003828154811061037b57fe5b906000526020600020906006020160040181905550336003828154811061039e57fe5b906000526020600020906006020160050160006101000a81548173ffffffffffffffffffffffffffffffffffffffff021916908373ffffffffffffffffffffffffffffffffffffffff16021790555050565b600381815481106103fd57fe5b90600052602060002090600602016000915090508060000154908060010160009054906101000a900473ffffffffffffffffffffffffffffffffffffffff16908060020154908060030160009054906101000a900460ff16908060040154908060050160009054906101000a900473ffffffffffffffffffffffffffffffffffffffff16905086565b806000806101000a81548173ffffffffffffffffffffffffffffffffffffffff021916908373ffffffffffffffffffffffffffffffffffffffff16021790555050565b6000809054906101000a900473ffffffffffffffffffffffffffffffffffffffff1681565b3373ffffffffffffffffffffffffffffffffffffffff166003828154811061051257fe5b906000526020600020906006020160010160009054906101000a900473ffffffffffffffffffffffffffffffffffffffff1673ffffffffffffffffffffffffffffffffffffffff161461056457600080fd5b3373ffffffffffffffffffffffffffffffffffffffff166108fc6003838154811061058b57fe5b9060005260206000209060060201600401549081150290604051600060405180830381858888f193505050501580156105c8573d6000803e3d6000fd5b50600160009054906101000a900473ffffffffffffffffffffffffffffffffffffffff1673ffffffffffffffffffffffffffffffffffffffff1663095ea7b36003838154811061061457fe5b906000526020600020906006020160050160009054906101000a900473ffffffffffffffffffffffffffffffffffffffff166003848154811061065357fe5b9060005260206000209060060201600001546040518363ffffffff1660e01b8152600401808373ffffffffffffffffffffffffffffffffffffffff1673ffffffffffffffffffffffffffffffffffffffff16815260200182815260200192505050600060405180830381600087803b1580156106ce57600080fd5b505af11580156106e2573d6000803e3d6000fd5b50505050600160009054906101000a900473ffffffffffffffffffffffffffffffffffffffff1673ffffffffffffffffffffffffffffffffffffffff166342842e0e306003848154811061073257fe5b906000526020600020906006020160050160009054906101000a900473ffffffffffffffffffffffffffffffffffffffff166003858154811061077157fe5b9060005260206000209060060201600001546040518463ffffffff1660e01b8152600401808473ffffffffffffffffffffffffffffffffffffffff1673ffffffffffffffffffffffffffffffffffffffff1681526020018373ffffffffffffffffffffffffffffffffffffffff1673ffffffffffffffffffffffffffffffffffffffff1681526020018281526020019350505050600060405180830381600087803b15801561081f57600080fd5b505af1158015610833573d6000803e3d6000fd5b50505050600260006003838154811061084857fe5b906000526020600020906006020160000154815260200190815260200160002060009055600060036001600380549050038154811061088357fe5b9060005260206000209060060201905080600383815481106108a157fe5b9060005260206000209060060201600082015481600001556001820160009054906101000a900473ffffffffffffffffffffffffffffffffffffffff168160010160006101000a81548173ffffffffffffffffffffffffffffffffffffffff021916908373ffffffffffffffffffffffffffffffffffffffff160217905550600282015481600201556003820160009054906101000a900460ff168160030160006101000a81548160ff021916908315150217905550600482015481600401556005820160009054906101000a900473ffffffffffffffffffffffffffffffffffffffff168160050160006101000a81548173ffffffffffffffffffffffffffffffffffffffff021916908373ffffffffffffffffffffffffffffffffffffffff16021790555090505060038054809190600190036109e09190611519565b505050565b6109ef82826111b6565b60016003600260008581526020019081526020016000205481548110610a1157fe5b906000526020600020906006020160030160006101000a81548160ff021916908315150217905550806003600260008581526020019081526020016000205481548110610a5a57fe5b9060005260206000209060060201600401819055506003600260008481526020019081526020016000205481548110610a8f57fe5b906000526020600020906006020160010160009054906101000a900473ffffffffffffffffffffffffffffffffffffffff166003600260008581526020019081526020016000205481548110610ae157fe5b906000526020600020906006020160050160006101000a81548173ffffffffffffffffffffffffffffffffffffffff021916908373ffffffffffffffffffffffffffffffffffffffff1602179055505050565b3373ffffffffffffffffffffffffffffffffffffffff166003600260008481526020019081526020016000205481548110610b6b57fe5b906000526020600020906006020160010160009054906101000a900473ffffffffffffffffffffffffffffffffffffffff1673ffffffffffffffffffffffffffffffffffffffff1614610bbd57600080fd5b6003600260008381526020019081526020016000205481548110610bdd57fe5b90600052602060002090600602016000808201600090556001820160006101000a81549073ffffffffffffffffffffffffffffffffffffffff021916905560028201600090556003820160006101000a81549060ff021916905560048201600090556005820160006101000a81549073ffffffffffffffffffffffffffffffffffffffff021916905550506002600082815260200190815260200160002060009055600160009054906101000a900473ffffffffffffffffffffffffffffffffffffffff1673ffffffffffffffffffffffffffffffffffffffff166342842e0e3033846040518463ffffffff1660e01b8152600401808473ffffffffffffffffffffffffffffffffffffffff1673ffffffffffffffffffffffffffffffffffffffff1681526020018373ffffffffffffffffffffffffffffffffffffffff1673ffffffffffffffffffffffffffffffffffffffff1681526020018281526020019350505050600060405180830381600087803b158015610d5c57600080fd5b505af1158015610d70573d6000803e3d6000fd5b5050505050565b600060038281548110610d8657fe5b906000526020600020906006020190508060020154341015610da757600080fd5b8060010160009054906101000a900473ffffffffffffffffffffffffffffffffffffffff1673ffffffffffffffffffffffffffffffffffffffff166108fc82600201549081150290604051600060405180830381858888f19350505050158015610e15573d6000803e3d6000fd5b503373ffffffffffffffffffffffffffffffffffffffff166108fc826002015434039081150290604051600060405180830381858888f19350505050158015610e62573d6000803e3d6000fd5b50600160009054906101000a900473ffffffffffffffffffffffffffffffffffffffff1673ffffffffffffffffffffffffffffffffffffffff1663095ea7b33383600001546040518363ffffffff1660e01b8152600401808373ffffffffffffffffffffffffffffffffffffffff1673ffffffffffffffffffffffffffffffffffffffff16815260200182815260200192505050600060405180830381600087803b158015610f1057600080fd5b505af1158015610f24573d6000803e3d6000fd5b50505050600160009054906101000a900473ffffffffffffffffffffffffffffffffffffffff1673ffffffffffffffffffffffffffffffffffffffff166342842e0e303384600001546040518463ffffffff1660e01b8152600401808473ffffffffffffffffffffffffffffffffffffffff1673ffffffffffffffffffffffffffffffffffffffff1681526020018373ffffffffffffffffffffffffffffffffffffffff1673ffffffffffffffffffffffffffffffffffffffff1681526020018281526020019350505050600060405180830381600087803b15801561100957600080fd5b505af115801561101d573d6000803e3d6000fd5b50505050600260008260000154815260200190815260200160002060009055600060036001600380549050038154811061105357fe5b90600052602060002090600602019050806003848154811061107157fe5b9060005260206000209060060201600082015481600001556001820160009054906101000a900473ffffffffffffffffffffffffffffffffffffffff168160010160006101000a81548173ffffffffffffffffffffffffffffffffffffffff021916908373ffffffffffffffffffffffffffffffffffffffff160217905550600282015481600201556003820160009054906101000a900460ff168160030160006101000a81548160ff021916908315150217905550600482015481600401556005820160009054906101000a900473ffffffffffffffffffffffffffffffffffffffff168160050160006101000a81548173ffffffffffffffffffffffffffffffffffffffff021916908373ffffffffffffffffffffffffffffffffffffffff16021790555090505060038054809190600190036111b09190611519565b50505050565b3373ffffffffffffffffffffffffffffffffffffffff16600160009054906101000a900473ffffffffffffffffffffffffffffffffffffffff1673ffffffffffffffffffffffffffffffffffffffff16636352211e846040518263ffffffff1660e01b81526004018082815260200191505060206040518083038186803b15801561124057600080fd5b505afa158015611254573d6000803e3d6000fd5b505050506040513d602081101561126a57600080fd5b810190808051906020019092919050505073ffffffffffffffffffffffffffffffffffffffff161461129b57600080fd5b600160009054906101000a900473ffffffffffffffffffffffffffffffffffffffff1673ffffffffffffffffffffffffffffffffffffffff166342842e0e3330856040518463ffffffff1660e01b8152600401808473ffffffffffffffffffffffffffffffffffffffff1673ffffffffffffffffffffffffffffffffffffffff1681526020018373ffffffffffffffffffffffffffffffffffffffff1673ffffffffffffffffffffffffffffffffffffffff1681526020018281526020019350505050600060405180830381600087803b15801561137857600080fd5b505af115801561138c573d6000803e3d6000fd5b5050505061139861154b565b6040518060c001604052808481526020013373ffffffffffffffffffffffffffffffffffffffff16815260200183815260200160001515815260200160008152602001600073ffffffffffffffffffffffffffffffffffffffff16815250905060006001600383908060018154018082558091505090600182039060005260206000209060060201600090919290919091506000820151816000015560208201518160010160006101000a81548173ffffffffffffffffffffffffffffffffffffffff021916908373ffffffffffffffffffffffffffffffffffffffff1602179055506040820151816002015560608201518160030160006101000a81548160ff0219169083151502179055506080820151816004015560a08201518160050160006101000a81548173ffffffffffffffffffffffffffffffffffffffff021916908373ffffffffffffffffffffffffffffffffffffffff160217905550505003905080600260008681526020019081526020016000208190555050505050565b8154818355818111156115465760060281600602836000526020600020918201910161154591906115af565b5b505050565b6040518060c0016040528060008152602001600073ffffffffffffffffffffffffffffffffffffffff1681526020016000815260200160001515815260200160008152602001600073ffffffffffffffffffffffffffffffffffffffff1681525090565b61164591905b80821115611641576000808201600090556001820160006101000a81549073ffffffffffffffffffffffffffffffffffffffff021916905560028201600090556003820160006101000a81549060ff021916905560048201600090556005820160006101000a81549073ffffffffffffffffffffffffffffffffffffffff0219169055506006016115b5565b5090565b9056fea265627a7a7231582020a5d4410986e3a8686d77a9cc033a74520c660af85051042e1838db28f055a364736f6c634300050c0032",
  "source": "pragma solidity >=0.4.21 <0.6.0;\r\n\r\n//import \"../node_modules/@openzeppelin/contracts/token/ERC721/IERC721.sol\";\r\n//import \"../node_modules/@openzeppelin/contracts/token/ERC721/IERC721Receiver.sol\";\r\n//import \"../math/SafeMath.sol\";\r\n//import \"../utils/Address.sol\";\r\n//import \"../node_modules/@openzeppelin/contracts/introspection/ERC165.sol\";\r\n\r\nimport \"./Escargots.sol\";  \r\n\r\ncontract TheSlimeRoad {\r\n\r\n  address public escargotsAddress;\r\n\r\n  function setEscargotsAddress(address _escargotsAddress) public {\r\n   escargotsAddress  = _escargotsAddress;\r\n  }\r\n\r\n  Escargots escargotsInstance = Escargots(escargotsAddress);\r\n\r\n  //mapping from tokenId to SaleId\r\n  mapping(uint256 => uint256) escargotsToSell;\r\n\r\n  struct Sale {\r\n    uint256 tokenId;\r\n    address payable seller;\r\n    uint256 price;\r\n    bool auction;\r\n    uint256 bid;\r\n    address bidder;\r\n  }\r\n\r\n  Sale[] public salesId;\r\n  //deposit a token to be sold\r\n  function deposit(uint256 _tokenId, uint256 _price) public {\r\n\r\n    require(escargotsInstance.ownerOf(_tokenId) == msg.sender);// require that you own the token you want to sell\r\n\r\n    escargotsInstance.safeTransferFrom(msg.sender, address(this) , _tokenId);// token owner must approve this contract first to be able to sell\r\n\r\n    //create new sale\r\n    Sale memory s = Sale({\r\n            tokenId: _tokenId,\r\n            seller: msg.sender,\r\n            price: _price,\r\n            auction: false,\r\n            bid: 0,\r\n            bidder: address(0)\r\n        });\r\n    uint256 saleId = salesId.push(s) - 1;\r\n\r\n    escargotsToSell[_tokenId] = saleId;\r\n  }\r\n\r\n  //function to withdraw a token you don't want to sell anymore\r\n  function cancelSale(uint256 _tokenId) public {\r\n    require(salesId[escargotsToSell[_tokenId]].seller == msg.sender);// you can only pull tokens you own\r\n\r\n    delete salesId[escargotsToSell[_tokenId]];\r\n    delete escargotsToSell[_tokenId];\r\n\r\n    escargotsInstance.safeTransferFrom(address(this), msg.sender, _tokenId);//give back the token to owner\r\n  }\r\n\r\n  function buy(uint256 _saleId) public payable {\r\n    Sale storage buy = salesId[_saleId ];\r\n    require(msg.value >= buy.price );//require you send enough money\r\n\r\n    buy.seller.transfer(buy.price);//transfer money to token owner\r\n    msg.sender.transfer(msg.value - buy.price);//give back the change\r\n\r\n    escargotsInstance.approve(msg.sender , buy.tokenId );//this contract approves the token buyer\r\n    escargotsInstance.safeTransferFrom(address(this), msg.sender, buy.tokenId);//the transfers the token to the buyer\r\n\r\n    delete escargotsToSell[buy.tokenId  ];\r\n    Sale storage replacer = salesId[salesId.length - 1];\r\n    salesId[_saleId] = replacer;\r\n    salesId.length--;\r\n  }\r\n\r\n  function  putAuction(uint256  _tokenId, uint256 _price) public payable{\r\n      \r\n      deposit(_tokenId, _price);\r\n\r\n      salesId[escargotsToSell[_tokenId]].auction  = true;\r\n      salesId[escargotsToSell[_tokenId]].bid  = _price;\r\n      salesId[escargotsToSell[_tokenId]].bidder  = salesId[escargotsToSell[_tokenId]].seller;\r\n\r\n  }\r\n\r\n  function bid(uint256  _saleId) public  payable{\r\n      require(salesId[_saleId].bid < msg.value);\r\n\r\n      salesId[_saleId].bid = msg.value;\r\n      salesId[_saleId].bidder = msg.sender;\r\n  }\r\n\r\n  function cashout(uint256  _saleId)public payable{\r\n    require(salesId[_saleId].seller == msg.sender);\r\n\r\n    msg.sender.transfer(salesId[_saleId].bid);\r\n    escargotsInstance.approve(salesId[_saleId].bidder, salesId[_saleId].tokenId);\r\n    escargotsInstance.safeTransferFrom(address(this), salesId[_saleId].bidder,salesId[_saleId].tokenId);\r\n\r\n    delete escargotsToSell[salesId[_saleId].tokenId];\r\n    Sale storage replacer = salesId[salesId.length - 1];\r\n    salesId[_saleId] = replacer;\r\n    salesId.length--;\r\n  }\r\n\r\n}",
  "sourcePath": "C:/Users/Ewan Debove/Documents/A5/Blockchain Programming/ERC721/contracts/TheSlimeRoad.sol",
  "compiler": {
    "name": "solc",
    "version": "0.5.12+commit.7709ece9.Emscripten.clang"
  },
  "schemaVersion": "3.0.19",
  "updatedAt": "2019-12-01T20:41:39.071Z",
  "devdoc": {
    "methods": {}
  },
  "userdoc": {
    "methods": {}
  }
}